:020000021000EC
:10000000E03F082095010100FB000100E100010034
:10001000090101001901010029010100000000008F
:10002000000000000000000000000000A1B9010075
:10003000390101000000000001BA0100590101006E
:10004000E1BF0100E1BF0100E1BF0100E1BF01002C
:10005000E1BF0100E1BF0100E1BF0100E1BF01001C
:10006000E1BF0100E1BF0100E1BF0100E1BF01000C
:10007000E1BF0100E1BF0100E1BF0100E1BF0100FC
:10008000E1BF0100E1BF0100E1BF0100E1BF0100EC
:10009000E1BF0100E1BF0100E1BF0100E1BF0100DC
:1000A000E1BF0100E1BF0100E1BF0100E1BF0100CC
:1000B000E1BF0100E1BF0100E1BF0100E1BF0100BC
:1000C000E1BF0100E1BF0100E1BF01009873020040
:1000D00000C00720F8020000F8C207205805000001
:1000E00004207146084203D0EFF309800BF096BF5D
:1000F000EFF308800BF092BF704708B5014808F095
:1001000099FAFEE7426D020008B5024808F092FA3B
:10011000FEE700BF4D6D020008B5024808F08AFAFC
:10012000FEE700BF586D020008B5024808F082FAE9
:10013000FEE700BF636D020008B5024808F07AFAD6
:10014000FEE700BF706D020008B5024808F072FAC1
:10015000FEE700BF7E6D020008B50BF0D5FB0BF08B
:1001600071FCBDE808400BF0E3BB0B4610B5401A2C
:100170005C1AA24203D9C45843F8044BF8E710BDF7
:10018000034610B500221C1AA14202D943F8042BE1
:10019000F9E710BD16480BF0F7FC15480BF0F7FC1B
:1001A000144C154DAC4201D3144D07E094E8030004
:1001B0000C3454F8042CFFF7D8FFF3E7AC4206D216
:1001C00054F8080B54F8041CFFF7DAFFF6E70DF0BB
:1001D00065FC0BF0F3FC01F0DBFD02F095FE4FF443
:1001E00016400CF039F8064808F024FAFEE700BF84
:1001F000E03F0820CC000100D8000100E000010031
:10020000926D02000BF0E0BB0BF0EEBB144B10B58F
:100210001A68014612B94FF080521A60114C1868E2
:100220002468421894421A6007D20F4CA24204D8A4
:100230000E4A0B488C18046010460D4A1B68126861
:10024000934222BF064B00201A6039B1094A136855
:1002500001331360084B1860084B196010BD00BFD4
:10026000FCC2072004C30720FFBF072050C8072097
:1002700008C307200CC30720F8C2072000C30720CB
:100280000DF044BD0DF04ABD0DF048BD30B504463B
:100290008BB068460DF0F6FF224B079A2360089B4F
:1002A000214DA36062602149214B52B90A68186848
:1002B00082428ABF02F1604202F17042A2F5E82256
:1002C000626062681B68B2F5803F82BF02F17042D3
:1002D000A2F5E82262600022E2600A68934206D337
:1002E000991AC5F1005303F504230B440BE0114B9D
:1002F0001B68934208D9991AC5F1005303F5F823F6
:100300000B44002B00DDE36020460B4BE2611B68D1
:10031000A3610A4B1B686361094B1B6823610BB027
:1003200030BD00BF5008000050C80720FCC20720A5
:1003300004C3072008C30720F8C2072000C3072012
:100340000CC3072000207047034A044B1A60044A7C
:10035000044B1A60704700BF0080001004C30720E0
:100360000040082008C30720014B1860704700BFF9
:1003700018C30720014B1860704700BF10C3072047
:1003800008B502480EF026FFFEE700BF8C440200CD
:1003900008B502480EF01EFFFEE700BFA6440200AB
:1003A0000020704701207047F8B5084B16461A68C0
:1003B0000F461C4642B10D46EB1B9E4204DD2368EE
:1003C00015F8010B9847F7E73046F8BD18C307202A
:1003D000F8B5094B0F46186816461C4658B10D462D
:1003E000EB1B9E4205DD23680020984705F8010BB2
:1003F000F6E726EAE670F8BD10C307207047002034
:100400007047FFFF074B1B689A68824207D05A6803
:10041000824204D0DB681B1A5842584170470120C1
:10042000704700BF3CC10720002070470020704784
:1004300030B504468DB0A8B3684609F02BFB9DF893
:100440000030002503F03F0303939DF8013003A81B
:1004500003F03F0304939DF802300B9503F01F0354
:1004600005939DF8043003F01F0306939DF80530B3
:1004700003F00F03013B0793BDF80630C3F30B03F2
:10048000A3F26C7308939DF8033003F007030993FC
:10049000BDF80830C3F30B03013B0A930DF080FD58
:1004A00084E8210000200DB030BDFFFF70B50F4D76
:1004B0000F4E2C6814F0010415D128460CF06CFA8C
:1004C00088B14FF40E70FFF7DBFE302380F8353231
:1004D0003A2380F8344280F8363280F83742306070
:1004E00028460CF065FA306870BD00BF34C30720A1
:1004F00038C3072070B50F4D0F4E2B6813F0010461
:1005000016D128460CF048FA90B14FF40E70FFF760
:10051000B7FE012380F83432312380F835323A2394
:1005200080F8363280F83742306028460CF040FAC6
:10053000306870BD2CC3072030C307202DE9F04F71
:10054000ADF51B7D0F4608F099FC041E04DD0BF091
:10055000A3F920460AF0E6FE0DF114094C462A4D97
:100560004FF0640B0FCD0FC42B6804AA2360102139
:1005700000240AA804940BF093F8244A82462449E4
:10058000384609F017FD26460AAD4FF00008D04561
:100590001CD06B69A34215D1AA69049B16441BB1F8
:1005A000B3FBFBF3B2FBF3F3297B039202932B8C97
:1005B00000949B00019359F821306A681549384628
:1005C00009F0F8FC08F101082435E0E701340A2CB1
:1005D000DAD1049B64229E1BB3FBF2F30E49B6FBF7
:1005E000F3F30E4A0096384609F0E4FC0AF06EFD7B
:1005F000102804D910220A49384609F0DBFC0120F2
:100600000DF51B7DBDE8F08FC0440200DF44020001
:10061000E44402000B450200334502002845020075
:100620005245020010B50C46ADF5007D68460BF052
:100630005DFC20464FF0FF32694609F085FC012041
:100640000DF5007D10BDFFFF30B50C4691B02C4973
:10065000054608F01FFB002847D00CAB04930BABFA
:1006600003930AAB029309AB019308AB009306AA6C
:1006700007AB2449284608F075FA072801D0002066
:100680003BE09DF83930069A0DA862F303038DF81C
:100690003930079A9DF8383062F304038DF838300A
:1006A000089ABDF83A3062F30B03ADF83A30099A74
:1006B0009DF8363062F304038DF836300A9A9DF8BF
:1006C000353062F305038DF835300B9A9DF83430E0
:1006D00062F305038DF834300C9A9DF8373062F3DD
:1006E00002038DF8373009F0FDF909F097FA064951
:1006F0000246204609F05EFC012011B030BD00BF6B
:100700007C45020080450200A2650200F7B50D4657
:100710004E49044608F0AEFB064640B107F022FE03
:100720004FF0FF324A49284609F00EFC8BE0494958
:10073000204608F09FFB60B307F038FE46490246AA
:10074000284609F037FC07F03DFE4449024628469A
:1007500009F030FC07F030FE41490246284609F016
:1007600029FC304607F018FE0446012007F014FE6D
:100770000646022007F010FE0746032007F00CFE95
:1007800000970190334622463649284609F012FC6C
:1007900059E03549204608F07DFA50B12022012168
:1007A000204608F015FB204608F066FB07F022FF04
:1007B00049E02E49204608F06DFA064620B92C493A
:1007C000204608F067FA60B32A49204608F050FA3C
:1007D00060B92949204608F04BFA28B92046274934
:1007E00008F046FA044602E0032400E00224314601
:1007F000204607F057FE224A224B002E18BF1A4609
:100800003CB1012C07D01C491A4B022C18BF0B46D7
:1008100002E01D4B00E0194B1C49284609F0CAFBB9
:1008200011E0204608F028FB194A1A490090F323EA
:10083000012007F045FE204608F01EFB164902463F
:10084000284609F0B7FB012003B0F0BDBB4502000C
:10085000C1450200DA450200E1450200F64502000A
:100860000B4602002A4602005A4602005E4602007B
:1008700066460200B6450200B0450200AA570200D3
:10088000A145020099450200AA4502006F460200F8
:10089000D444020088460200BB46020030B589B04D
:1008A00004AB002400930D4603AB022218490394C5
:1008B000049408F065F9022827D107AB009305AA34
:1008C00006AB0499039805940694079404F056FA2D
:1008D000024638B1049B0F4900932846039B09F058
:1008E00069FB10E0059A069B002A079908BF0122C0
:1008F000002B08BF0123B1FBF3F3B1FBF2F2284652
:10090000054909F057FB012000E0204609B030BD41
:100910004A570200C9460200E84602002DE9F047A6
:100920000E46ADF5856D3949054608F03DFA384962
:100930000746284608F061FA3549284608F07DFA4E
:10094000284608F099FA0122014681A806F060FACB
:10095000044640B1284608F08FFA2E490246304638
:1009600009F028FB4CE00DF1040A01464FF4007237
:1009700050460DF030FA00940BF0A2FA80468946FA
:100980006B464FF40072514681A806F0DBFA08B9B5
:10099000009B23BB81A806F0A4FCCFB10BF090FA1A
:1009A0004FF47A7200230CF0F1FD002305464FF45A
:1009B0007A72404649460CF0E9FD281A14BF0346F6
:1009C0000123B4FBF3F322461349304609F0F2FA4F
:1009D0004FF0FF321149304609F0B6FA10E01C44DE
:1009E000002FCDD13D46009B9D42C9D233681AF8F5
:1009F00005105B684FF0FF32304698470135F2E74B
:100A000001200DF5856DBDE8F08700BF1647020097
:100A10004A5702001F47020033470200C14C020040
:100A20002DE9F0470023BEB00C46534905460C9310
:100A300008F020FA20B9284608F01EFA064600E021
:100A40004E4E314615A806F005FD054630B1034669
:100A500032464B49204609F0ADFA89E03246494911
:100A6000204609F0A7FA2F460DF1780880230DA93A
:100A700015A8CDF84C80149306F030FD002861D104
:100A80009DF83D30002B5DD09DF83C100DF13D00F0
:100A9000CA065BBF0D9B0C9A44229B185BBF0C934C
:100AA0002D220135013711F0010F14BF52232D23E0
:100AB000BDF83AA011F0020F09900D9814BF4FF045
:100AC000480E4FF02D0E11F0040F14BF4FF0530CD1
:100AD0004FF02D0C089011F0200FCAF34510BDF80F
:100AE000381007904FEAEA20069001F01F000590A9
:100AF000C1F343104FEA612114BF4FF041094FF099
:100B00002D0901F2BC71CDF804C0CDF800E00490CD
:100B10000391CDF808901C49204609F04BFA4FF09C
:100B2000FF321A49204609F0FBF941464FF0FF32E7
:100B3000204609F0F5F94FF0FF320F49204609F041
:100B400003FA91E73A46124900950C9B204609F0BA
:100B500031FA0BAA0CA9304606F0EFFC40B90B9B0A
:100B60000C499A780C9B20465A43520809F022FA05
:100B700001203EB0BDE8F087C14C02004E470200A4
:100B8000514702007547020090470200BD4702002E
:100B9000C1470200EB47020070B50C46064608F05C
:100BA0006BF90546304608F067F906F088FD064AFD
:100BB000064B0749002808BF13462A46204609F07D
:100BC000F9F9012070BD00BFA1490200AB49020044
:100BD000FF47020070B50C46064608F04DF9054681
:100BE000304608F049F906F00DFD064A064B074964
:100BF000002808BF13462A46204609F0DBF90120E9
:100C000070BD00BFA1490200AB4902001B480200B1
:100C10007FB503AB002400930E4602AB02220F49BE
:100C20000294039407F0ACFF022814D1029C039DA8
:100C30002046294606F0ECFD094B0A4922460028C9
:100C40000CBF084618462B4600900749304609F06D
:100C5000B1F9012000E0204604B070BD4A570200FF
:100C6000AB490200A14902002D48020030B5ADF5A4
:100C70000D7D0C46054608F0FFF80A22014603A840
:100C800006F0C6F840B1284608F0F6F81F490246BB
:100C9000204609F08FF934E08DF8070002901C49D6
:100CA00042F210737E22204609F084F91949204649
:100CB00009F080F9236842F210721B680DF10701F8
:100CC0002046984718B19DF807307E2B03D103A822
:100CD00006F007FB15E002AB01220DF1070103A8A6
:100CE00006F0E8F958B9029B012B08D123684FF0B0
:100CF000FF325B689DF8071020469847DAE70649FF
:100D0000D5E701200DF50D7D30BD00BF454802003F
:100D10006C480200A4480200C44802002DE9F04FCC
:100D2000ADF5417D002304AC236003930D46009490
:100D300003AB0222414907F023FF022806D04FF0FF
:100D4000FF323F49284609F0FFF872E0216817A8F2
:100D500006F080FB10B122683A4906E0039917A813
:100D600006F078FB28B1039A3749284609F022F9A2
:100D70005FE04FF480720DEB020105A807F0C2FEA0
:100D80004FF4807280A90AA807F0BCFE20AE80272D
:100D90000FA917A81596169706F0A0FB002842D1B8
:100DA0009DF84530002B3ED09DF8443003F01003F1
:100DB00003F0FF0A002BEBD10DF14503039A234901
:100DC00005A808F0A3F80DF1450322681F490AA8F9
:100DD00008F09CF805A808F04FF807460AA808F0A4
:100DE0004BF8804605A8DDF83C9008F045F88346AE
:100DF0000AA808F041F8534652460146CDF800A033
:100E0000584603F0BBFF124A124BCDF80090002861
:100E10000CBF184610461049019043463A462846F2
:100E200009F0C8F8B3E70AA807F081FE05A807F0A3
:100E30007EFE01200DF5417DBDE8F08F4A5702008E
:100E4000EB48020030490200554902007549020092
:100E5000AB490200A14902007B490200F8B50D46EA
:100E60002449064608F006F80446074618B1FFF77D
:100E700041FB002208E02049304607F0FBFF044612
:100E800060B1FFF713FB3A46114600F2352006F039
:100E90004FFD4FF0FF32194B194922E019493046F6
:100EA00007F0E8FF044658B1FFF724FB012200F2E7
:100EB000352105F06FFF4FF0FF32134B134910E05F
:100EC0001349304607F0D6FF044680B1FFF7EEFA2B
:100ED000012200F2352105F05DFF0E4B0E494FF067
:100EE000FF32002818BF1946284609F02DF8204681
:100EF000F8BD00BF024A02000C4A0200A4490200E9
:100F00009A490200194A0200C1490200B14902008F
:100F1000224A0200E6490200D849020008B5084604
:100F20004FF0FF32084909F00FF807F01BFA4FF4B1
:100F3000FA600AF0F7F94FF08043AA221A720022F1
:100F40001A70012008BD00BF2E4A020010B5012012
:100F50000C4607F0CBFD40B100231A46194609F0B4
:100F6000F3FC4FF0FF32054902E005494FF0FF3234
:100F7000204608F0E9FF012010BD00BF3F4A0200F3
:100F8000554A020038B5064C236833B91C20FFF7D8
:100F900077F9054608F086FC2560206838BD00BF5B
:100FA00024C307202DE9F04F5F4C91B023680E4613
:100FB00033B92C20FFF764F9054608F007FF2560D8
:100FC0002768FFF773FA00240CAA0DA900F2352058
:100FD0000D9406F0B2FA48B90C9A0D9C9569937875
:100FE000023D5C435D4364086D0800E025464F4BBD
:100FF0001A6898467AB90C20FFF742F98146FFF744
:10100000C1FF902389F804300023C9F80000C9F813
:101010000830C8F80090D8F8000003F0CBFC8146F7
:101020000CF06EFA0A900CF051F8014648460BF0AD
:1010300097FF3F490CF09EF80CF062FA81460DA82C
:101040000AF0B2FD04F0DEFD68B308F061FE04F0C2
:10105000C3FD4FF0000A0346D346D0469A450B9392
:101060000BD0504604F01CFE804538BFD3460B9B86
:1010700038BF80460AF1010AF0E708F061FE6423F8
:1010800003FB08F32B4ACDF80880B3FBF2F3C3F15E
:1010900064030093CDF804B02B462246264930461F
:1010A00008F088FF05E02B4622462449304608F028
:1010B00081FF234C23681BB90120FFF7E1F8206072
:1010C000206803F03BFC044608F0A8FDFB8C0A9A5C
:1010D0000993BB8C1B4908939DF83430019003F0B1
:1010E0003F0307939DF83530009403F03F030693C8
:1010F0009DF83630304603F01F030593BDF83A30B3
:10110000C3F30B0304939DF8383003F01F030393DC
:101110009DF8393003F00F0302934B4608F04AFF65
:10112000012011B0BDE8F08F28C307201CC30720A1
:1011300000002041A08601008E4A0200C24A02003F
:1011400020C30720D04A02002DE9F04F0D46C7B05A
:101150005549814607F0B5FD54498246484607F097
:10116000B0FD53498346484607F0ABFD00270DF11B
:10117000100805AE044602970397C8F80070376060
:10118000BAF1000F45D0009603AB02AA4949484680
:1011900007F0E8FC012807DC28464FF0FF324649FB
:1011A00008F0D2FE38467CE00DF118084FF4807448
:1011B0002246394640460CF00EFE336813B901232F
:1011C000336003E0B3F5807F88BF3460FFF7DAFE59
:1011D00033689DF80C209DF808100093434608F0F2
:1011E000AFFF364A364B3749002818BF1346029ADC
:1011F000284608F0DFFE002433689C424ED2039A52
:1012000018F8043022443049284608F0D3FE01344F
:10121000F2E7BBF1000F2CD0CDF8008003AB02AA9F
:101220002A49484607F09EFC032807D028464FF07D
:10123000FF32274908F088FE504632E0FFF7A2FE51
:1012400098F800309DF80C209DF8081008F08DFFEC
:1012500048B1039B1F490093D8F80020029B284601
:1012600008F0A8FE1AE0029A1B49284608F0A2FEE0
:1012700014E0A8B102230293029BFE2B10DCFFF7BF
:1012800081FE9DF8081008F07BFF20B1029A1349F7
:10129000284608F08FFE029B0233ECE7012000E0B5
:1012A000204647B0BDE8F08F69580200394B020074
:1012B0003F4B0200484B0200574B0200A14902007D
:1012C000AB490200784B02009C4B0200AC4B020081
:1012D000BC4B0200E34B0200FD4B02001A4C020023
:1012E00070B5ADF50A7D05460C4607F032FC0B28BB
:1012F00002DD0C2222493CE0284607F0BDFD012218
:10130000014601A805F084FD064668BB01A805F06A
:10131000E8FF284607F0B0FD1A490246049B204624
:1013200008F048FE236820469B6898470A2009F089
:10133000F9FF4FF0100383F31188BFF36F8FBFF3F2
:101340004F8F284607F098FD02460F4B0068516802
:1013500003C390680D4A186043F80C2C4FF080438B
:10136000AA221A721E7007E0284607F085FD024681
:101370000749204608F01EFE01200DF50A7D70BDCC
:10138000544C02007B4C0200484002400DD0ADDEC0
:10139000C24C02002DE9F041404CA4B0236806463F
:1013A000DB070D460CD420460BF0F6FA40B14FF4A3
:1013B00080600CF0ABFC3A4B186020460BF0F8FA5A
:1013C0003849304607F07DFC0746044600B38022CA
:1013D000002104A80CF0FFFC00230293039303AB4D
:1013E000009304AA02AB3049304607F0BBFB2C49FE
:1013F000029B039A096804A813B903F05BFD01E09E
:1014000003F07AFD294B2A49002818BF194638E015
:101410002849304607F055FC074600283AD004AB6F
:10142000304603AA2449039404948DF8084007F039
:1014300099FB039E049B3344B3F5806F02DCDFF815
:1014400060800CE04FF480621C4920E0D8F8003046
:101450009DF808209A559DF8083001361C44039BDE
:10146000049AF31A934210DAB6F5806F0DDA2B68FE
:101470004FF4FA621B6802A9284698470028E5D174
:101480000F49284608F096FD04E022460D492846FB
:1014900008F090FD384624B0BDE8F08140C3072035
:1014A0003CC30720ED4C0200F44C0200DB4C020070
:1014B000D74C0200044D02000B4D0200154D0200F6
:1014C000394D0200494D020038B50D4607F0D6FCF3
:1014D0000446C0B202F09CF9054A064B06490028B2
:1014E00018BF13462246284608F064FD012038BD87
:1014F000A14902005A4D0200614D020030B50C4670
:10150000054687B00A4908F055FDA1882388049153
:10151000218962880391E18828460291E17A01914C
:10152000A17A0091034908F045FD07B030BD00BF26
:10153000784D0200AE4D02002DE9F0418CB003ABB6
:10154000002600930D46904602AB022238490296CF
:10155000039607F015FBB04266DD02980CF0ADF97A
:10156000C7B2039818B10EF037F9C4B200E00446D0
:10157000002104A802F0ECFF30B14FF0FF322D49FA
:10158000284608F0E1FCF3E7022318F1000100937C
:10159000039A234618BF0121384602F07DFA064619
:1015A00038B94FF0FF322449284608F0CDFC012617
:1015B0003AE0B8F1000F37D04FF47A7104A802F086
:1015C000CFFF60B39DF81030BB4228D19DF8173093
:1015D0000C2B04D13A4606A92846FFF78FFFBCB969
:1015E0001649284608F0E6FC9DF817309C420ADAB6
:1015F00004AB19192B684FF0FF325B68097A284653
:1016000098470134F0E70E49284608F0D3FC0BE078
:101610004FF0FF320B49284608F096FC04E0029A8E
:101620000949284608F0C6FC30460CB0BDE8F081F8
:101630004A570200CC4D0200EE4D0200164E020049
:10164000435402002A4E0200474E02001FB501A873
:101650000C4602F0FFFB02F0E7F801A90246204623
:10166000FFF74CFF012004B010BDFFFF30B58BB079
:101670000AAA4FF47A730C4642F8243D174907F042
:1016800071FA0025019902A802F062FFD8B19DF815
:1016900008201349204608F08DFC00259DF80F30E6
:1016A0009D420ADA02AB591923684FF0FF325B689A
:1016B000097A204698470135F0E70A49204608F0A4
:1016C00079FC0125DEE72DB94FF0FF3206492046AF
:1016D00008F03AFC01200BB030BD00BF124D0200F3
:1016E0006D4E0200C04C0200844E020037B50C461D
:1016F00002F014FA05461649204608F05BFC15492D
:101700002A46204608F056FC1149204608F052FCB3
:10171000D5B11149204608F04DFC0D49204608F08E
:1017200049FC0025E8B202F0E3F9013540B18178C7
:101730004378027800912046084908F03BFCF1E725
:101740000349204608F036FC012003B030BD00BF3D
:10175000954E0200B04E0200CA4E0200E54E020055
:101760002DE9F3473C4C074626688946002E62D196
:101770002420FEF785FD0423054680E848008660A6
:10178000C660202130460DF08FFDAE68E8604FEA5C
:101790008608072E0ED81020FEF772FD8246102212
:1017A00000210CF018FBEB68013643F808A008F1A3
:1017B0000408EEE7002608236B604FF00108274B72
:1017C000274A28492846009685F82080256006F09B
:1017D0003BFB254B254A26492068009606F034FB42
:1017E000244B254A25492068009606F02DFB244B02
:1017F000244A25492068009606F026FB234B244AFC
:1018000024492068009606F01FFB234B234A2449F5
:101810002068CDF8008006F017FB224B224A2049B1
:101820002068009606F010FB0096204B204A2149C4
:10183000206806F009FB2049384607F01BFB18B169
:101840001E49384607F0D0FB4A463946206802B0A8
:10185000BDE8F04706F0D8BB48C30720004F0200A0
:101860003A4F02000D1B0100414F0200954F02004C
:10187000E11801009E4F0200C14F02006D160100E9
:10188000C44F020023550200C9140100EE4F0200AC
:101890000A500200ED1601001150020078500200BB
:1018A0003915010052500200775002007C500200AE
:1018B000975002004D160100C14C02009D500200DD
:1018C00038B5064C236833B95820FEF7D9FC0546D5
:1018D00008F0C0F82560206838BD00BF44C3072069
:1018E0002DE9F04F0446ADF2DC5D802288460DA85C
:1018F00000210CF070FA802200212DA80CF06BFA68
:1019000006AE002333600DAA00962DAB7549204624
:1019100007F028F9032801D00020DFE001220DA9FB
:10192000EDA805F075FA05460028F5D1FFF7C8FFC8
:101930003368802280F853304DA9044608A88DF8FA
:101940001750079507F0DEF82DAB009333680DAA0A
:101950006549404608F02EFBA94607AE33464FF4D2
:1019600000726DA9EDA805F0EDFA002840F0AF80F7
:101970003368002B00F0AB806F1C32685B49204657
:1019800008F018FB236820469B6898477D1E0DF5DC
:10199000DA7B4FF0000A6DAB3268C3EB0B039A425F
:1019A00023680CD9CDF80CB05B684FF0FF321BF800
:1019B000011B20469847039B1B789A44EBE79B68E2
:1019C0002046984708A807F057FA834608A807F06A
:1019D000C3F84FF47A7302465946204608F0C2FA1B
:1019E000202201210DEB020007F0F2F908A807F010
:1019F00045FA824520D008A807F040FA524603462F
:101A00003B49404608F0D6FA3A49204608F0D2FA57
:101A1000236820469B68984723684FF47A721B68B6
:101A20000DF11701204698470028F5D1022F07F144
:101A300001034CD81F46A0E733682DAA2E49009316
:101A400020464B4608F0B6FA236820469B68984724
:101A500008A807F011FA824608A807F07DF8514659
:101A600002464FF47A73204608F07CFA234908A80E
:101A700007F0FEF8D0B908A807F0FEF920490246A1
:101A8000404608F097FA1B49204608F093FA23686D
:101A900020469B68984723684FF47A721B680DF1C3
:101AA0001701204698470028F5D1BFE7154908A837
:101AB00007F09AFA3368144999444A46F09B404625
:101AC00008F078FA002D3FF448AFBD1E45E7EDA8B9
:101AD00005F007FC08A807F02AF801200DF2DC5DEC
:101AE000BDE8F08FA2500200B1500200C8500200C1
:101AF000DA500200C04C02000151020017510200EE
:101B00001A510200C14C0200525102002DE9F04767
:101B1000074686B006AA002442F80C4D0E463D4901
:101B200007F020F820220121384607F051F9039BE5
:101B3000002B65D0384607F00CF8002860D0FFF77E
:101B4000BFFE05460DF1180808F80D4D2B6805225B
:101B50001B6841462846984704460028F6D1039B57
:101B6000384685F8533007F087F9274601464FF08D
:101B7000FF32284608F0E8F92B6828469B6898470A
:101B8000254B0DF11809186849F8044D04902B688D
:101B90004FF47A721B68414628469847D0B1032219
:101BA0000DF1150148460CF0FBF89DF80BA004223E
:101BB00004A948468DF817A00CF0D8F850B1336846
:101BC00001225B6851463046013798470028DED134
:101BD0000134DCE71822B7FBF2F302FB137202B107
:101BE00001333A460D49304608F0E4F974B16123F7
:101BF000009322460A4B0B49304608F0DBF905E01A
:101C00004FF0FF320849304608F09EF9012006B037
:101C1000BDE8F087124D0200564D02005E510200F1
:101C200085510200C15102007A52020001480DF0B4
:101C3000D1BA00BFA652020038B504460D460AF0DC
:101C4000B9FA074BB0FBF3F00223B0FBF3F2AA4260
:101C500004D9B3F5807F01D00233F6E7236138BDA4
:101C600040420F007FB500F235260C460122314676
:101C700005F090F8054648BB039002AA03A9304638
:101C800005F05BFC00BB0298039A837802FB03F12A
:101C900082691348023A5A435208B2F5004F38BFDE
:101CA0000120104B4FEA510124BF03464FF48060DE
:101CB000B1FBF0F1B2FBF0F20091019321460A482A
:101CC0000DF016FA012008E0084B00E0084B2A4608
:101CD000214608480DF00CFA002004B070BD00BF8A
:101CE000E4520200E1520200EE520200EA52020007
:101CF000E75202001C53020038B5074C23684BB969
:101D00000820FEF7BDFA0546FFF73CF9402328609E
:101D10002B712560206838BD54C3072038B5054CA9
:101D2000256825B90120FEF7ABFA05702060206810
:101D300038BD00BF50C3072038B5084C23685BB9D5
:101D40000C20FEF79DFA0546FFF71CF990232B7136
:101D500000232860AB602560206838BD1CC30720C5
:101D600010B5044C23681BB90120FEF789FA2060E6
:101D7000206810BD20C3072010B5044C23681BB990
:101D80000120FEF77DFA2060206810BD4CC30720BB
:101D9000AD49AE4A4023F0B58B614FF000739361BB
:101DA0004FF480338B61AA4BADF5057D186807258C
:101DB00020F0F00018601868022440F0500018600D
:101DC000186820F440501860086840F0400008602F
:101DD000186820F47C201860186840F428201860E7
:101DE000186820F470001860186840F4200018602B
:101DF000186820F040401860186840F000401860F3
:101E0000586820F03C005860586840F0280058603E
:101E1000586820F003005860086840F4803008607B
:101E2000586820F440505860086820F4800008602A
:101E3000D96821F44031D960116841F08071116096
:101E4000596821F440215960596841F48021596052
:101E50009868804901409960116841F4897141F0A6
:101E600001011160996821F470119960996821F05D
:101E700070419960116821F446411160D96821F0E0
:101E80003001D960D96841F03001D960D96821F4B6
:101E90007011D960136843F000731360136823F066
:101EA0008063136007F0FEF801210A2009F0A2FF09
:101EB00001210A2009F0B6FF67480121056044604E
:101EC000FFF7BAFE07F0B4FE0121152009F092FFDA
:101ED0000121152009F0A6FF60480121056044603A
:101EE000FFF7AAFEFFF74EF8642107F0A7FC10B930
:101EF0005B480DF06FF909F0B9FF02F003FB10B970
:101F000058480DF067F94FF4FA6007F084F8FFF7CE
:101F10008DFE0AF04FF90BF0D5F853490BF0DEF9BE
:101F20000AF0CEFE02460B4650480DF0E1F809F0EB
:101F300035FE052804AC14D1002363604C4B1B68AC
:101F40002360FFF773FE4B4B4B48D96C1A6D5B6DEA
:101F500000940DF0CDF8FFF769FE41F2883007F0EC
:101F60005AF8FEF7A3FA4549FFF77CFE054668BB21
:101F700043480DF0BDF803F0BDFEFEF797FA294681
:101F80002A4600F2352005F0D3FC3E4B3E4A00289D
:101F90000CBF104618460DF01DF9FEF787FA3749B9
:101FA000FFF760FE90B939480DF014F903F024FEF4
:101FB000014637480DF09CF803F00EFE054603F08D
:101FC0001BFE00FB05F133480DF092F8324E334F03
:101FD000336813F0010516D130460AF0DDFC90B1EC
:101FE0004FF40E70FEF74CF9012380F834323123A0
:101FF00080F835323A2380F8363280F8375238602C
:1020000030460AF0D5FC26493868264DFFF72AFEEF
:1020100018211148FFF710FEFFF708FE2B684BB997
:102020000820FEF72DF90646FEF7ACFF3823306096
:1020300033712E60286802F057FB0546B0BB1A4882
:102040000DF0C8F833E000BF00C0092020C009200F
:1020500000C00240F0FCFCFF00000340008008408C
:10206000605302009153020000247449B6530200E9
:102070004440024000400240CE5302004654020059
:102080004E540200545302004F5302008B5402007E
:10209000AA540200B95402002CC3072030C3072001
:1020A000D04902005CC30720D45402000125FFF789
:1020B00043FE02F055FC064618B972480DF08AF846
:1020C0003546FFF719FE02F091FB064618B96E4837
:1020D0000DF080F835466D4E33681BB90120FEF7D0
:1020E000CFF83060306802F04FFBFFF739FE02F0A6
:1020F00023FCFFF713FE02F0B2FBFFF73DFE02F0F8
:1021000020FCFFF70BFE002102F0ACFB8DB9FFF7BE
:102110008DFDFFF7F1FD2D2102F050FBFFF7ECFDE7
:102120002D2102F057FBFFF7F9FDFF2102F09AFB8A
:102130000CE0FFF7E1FD0546FFF7FEFD02F03AFC7B
:102140000BF004FAC1B2284602F06CFB1022002109
:1021500020460BF040FE00230F2221464C4802F09F
:1021600087FE80B920460BF0A8FBC5B2284601F0D7
:102170004FFB484A484B2946002818BF1346444A9B
:1021800046480CF0B5FFFFF7EBFD02F0D7FB054624
:1021900000200EF0ABFA28440DF024F84FF4007242
:1021A000002120460BF017FE204609F09FFE214635
:1021B0003B480CF09DFFFFF739FD802200212046AF
:1021C0000BF009FE204603F0F3FC2278FF2A04D02E
:1021D000214634480CF08CFF29E0FFF7CDFD02F0DA
:1021E000B3FB09281DD130480CF0F4FF21462F48DD
:1021F0000DF004F921462E480CF07AFF2D480CF022
:10220000E9FF002303A92C4803930DF0F7F89DF88C
:102210000C30592B03D1204603F0A8FC07E02748D7
:1022200003E027480CF0D6FF26480CF0D3FF4FF20E
:1022300008031D684FF20C031C684FF210031E6860
:102240004FF470431A684FF20403AD0A1968A40AE8
:102250001D480CF04DFF2A4621461C480CF048FF53
:1022600031461B480CF044FFFFF7E0FC012006F06C
:10227000AFF818480CF0AEFFFFF7D8FC0DF5057D60
:10228000F0BD00BFEF5402000955020058C30720FB
:10229000225502005A5302005A4D020028550200EE
:1022A000A26502005C550200785502009A550200B2
:1022B0009F550200BA550200FD550200015602006A
:1022C000195602004756020079560200A556020030
:1022D000D2560200EF5602000120704701207047DD
:1022E0000120704710B5044C23681BB90120FDF78D
:1022F000C7FF2060206810BD58C307200120704729
:1023000038B504460F4B00250360636DE06DAB42AA
:1023100005D950F82500FDF7B5FF0135F5E708B1FF
:10232000FDF7B2FF0025A36B206CAB4205D950F836
:102330002500FDF7A7FF0135F5E708B1FDF7A4FF7C
:10234000204638BD2857020010B50446FFF7D8FFD5
:102350002046FDF797FF204610BD2DE9F0410446C9
:102360000E46C06889000CF09FFFA568E060AF00D2
:102370004FF00008AE420DD90C20FDF781FFE36855
:10238000C0F80080C0F8048080F808800135D8517A
:102390000437EFE76660BDE8F081FFFFF7B504465C
:1023A00000250B464FF480520095254906F084FB2A
:1023B000244B042623606663A563E563256402213C
:1023C00004F13400FFF7C9FF26656565A565E5657D
:1023D000284660210CF068FFA56DE065AE00172D62
:1023E0000CD81020FDF74CFF0746102200210BF0FF
:1023F000F2FCE36D01359F510436F0E71823636565
:10240000012384F87030104E0023A4F87430A4F82F
:102410007630A367002200230027C4E92023C4E903
:10242000226709F04DFD4FF47A7200230BF0AEF8ED
:1024300080197941C4E92001204603B0F0BD00BFF6
:102440004057020028570200C0D401002DE9F04196
:102450000F7A14464D680E688FB1082A23D128469A
:1024600006F077FB00281CDD4FF0FF3213493046A1
:1024700007F056FD0121284606F06AFC08E00A2A0A
:1024800019D00D2A12D02146284606F082FD97B1B8
:10249000336821463046BDE8F0415B684FF0FF32BB
:1024A00018470724F4E70A2A02D1F1E7BDE8F081D2
:1024B0000D2AEDD0E7E7BDE8F08100BF49570200E3
:1024C000F8B50446142015460F46FDF7D9FE8021C5
:1024D000064606F00EFDA36BE26B9A4206D3616BD3
:1024E000591803D204F13400FFF737FFE36B226C75
:1024F000591C52F82330E1631F605E601D72F8BD05
:102500002DE9FF47CF6B06460D4601AC3FB94FF4AE
:102510007A7008F007FF01976760A76047E00B6CCF
:102520000DF110081B6893E8070084E807000023FA
:1025300008F80D3D08F0BEFD81460027EB6B9F4279
:1025400063D22B6C4FEA870A53F827301868037C54
:10255000002B34D0036800221B684146984770B3B3
:10256000EB6B9F422DD22B6C53F80A3093E8070097
:1025700084E807009DF8032021462846FFF766FF00
:1025800009F09EFC4FF47A7200230AF0FFFFD5E9B0
:10259000222380185941C5E92001029806F0D9FA92
:1025A0000746029806F0D8FA013887420CDB94E817
:1025B000070086E80700304604B0BDE8F087013721
:1025C000BCE705F14403D1E7D5E92223134324D026
:1025D00009F076FC4FF47A7200230AF0D7FFD5E9B0
:1025E0002023994208BF904217D309F069FC4FF4A9
:1025F0007A7200230AF0CAFFD5E9222380185941D4
:102600000023C5E920010193D1E708F053FD81457E
:10261000C3D1022008F086FEBFE79DF803300A2BE5
:1026200088D1C4E7F0B5054685B020480CF060FDC0
:10263000294601A8FFF764FF019C1CB91C480CF057
:10264000C9FD30E0029E304606F083FA00282ADDFC
:1026500009F036FC0746F8B1B5F8743005F15000C2
:102660000133A5F874302246314605F0CDFC114BFC
:1026700000251868009023681DF805105B684FF06E
:10268000FF32204601359847042DF4D109F018FC9B
:10269000C11B09480CF02CFD304606F05FFA236898
:1026A00020469B689847012005B0F0BD4C570200BA
:1026B000C14C02001C5702005257020038B5064CAC
:1026C000236833B92C20FDF7DBFD054607F07EFBC0
:1026D0002560206838BD00BF28C3072010B5044618
:1026E000FFF7ECFF03682146BDE810405B684FF040
:1026F000FF32184713B5002302AC04F8013DFFF781
:10270000DDFF03684FF0FF321B68214698479DF8B4
:10271000070002B010BDFFFF2DE9F04100F15004A9
:102720008AB000250646009520465B4B5B4A5C4913
:1027300005F08AFB009520465A4B5B4A5B4905F041
:1027400083FB009520465A4B5A4A5B4905F07CFBB7
:1027500000952046594B5A4A5A4905F075FB009599
:102760002046594B594A5A4905F06EFB00952046C0
:10277000584B594A594905F067FB00952046584B7C
:10278000584A594905F060FB00952046574B584A76
:10279000584905F059FB00952046574B574A584970
:1027A00005F052FB00952046564B574A574905F015
:1027B0004BFB00952046564B564A574905F044FBC3
:1027C00000952046554B564A564905F03DFB00956D
:1027D0002046554B554A564905F036FB0095204694
:1027E000544B554A554905F02FFB00952046544B54
:1027F000544A554905F028FB00952046534B544A4E
:10280000544905F021FB00952046534B534A544947
:1028100005F01AFB00952046524B534A534905F0E8
:1028200013FB00952046524B524A534905F00CFBCE
:102830000095524B524A5349204605F005FBFFF7DD
:102840003DFF4FF4807320224FF41641054607F0F8
:102850009DFA804601272F744B48FDF78BFD4B48AE
:10286000FDF782FD3A4629463046FFF729FE082249
:1028700003A905A806F046F905A8454906F0B4FBEA
:102880002A4605A9204605F0BFFB05A806F04FF92A
:1028900040460AB0BDE8F08168570200AA5702001E
:1028A0003D0501009F570200AF57020025060100B9
:1028B000B7570200C5570200A50F0100CC57020010
:1028C0000D58020049060100125802006E5802001D
:1028D0001D09010072580200005902009D08010004
:1028E000B4580200FF5802001D0D010003590200F8
:1028F00031590200210A01003459020059590200DD
:10290000990B01005F5902008C590200110C010063
:102910008F590200217002006D0C0100B4590200B1
:10292000D7590200D50B0100DA590200AD5A020056
:1029300049110100B15A0200F45A02005D0E010073
:10294000FC5A02000F5B02001D0F0100165B020023
:10295000155C02000D070100195C0200415C0200D9
:102960004D0F0100475C0200AD53020061170100EA
:10297000715C0200655D0200951301002E5D02008E
:10298000134A0200E1120100F5260100DD260100D4
:102990009D5002007FB50C460646154600211022C8
:1029A00068460BF018FA4FF00003224664F3030365
:1029B000294602A88DF8023001960BF0E6F90022B4
:1029C0006946104606F07EFD04B070BD10B50120CA
:1029D00086B008F03DF8194B18600120FDF750FC57
:1029E000044602F0F7F8164B20461C60002402F063
:1029F00017F90A231A46019400946421204606F030
:102A000045FC6421204606F0BBFD7821ADF814009A
:102A1000204606F0B5FD2346ADF8160022460221F9
:102A2000039402940194009405A806F0C3FD204687
:102A300006F09AFD012006B010BD00BF78C3072044
:102A4000ACC307200120704708B5002006F02CFD1C
:102A500020B1BDE80840002006F086BD08BD7047E3
:102A60007047FFFFF8B51F4E3568CDBB40F244708C
:102A7000FDF706FC0446012380F81437A523C0F8AF
:102A80003C5780F83C375A2380F83D37052380F8BF
:102A90003E374023C0F8405780F84137812380F803
:102AA000423780F8085700F5E16300F2117203F82D
:102AB000015F9342FBD10C4D0023A4F812372B6821
:102AC00033B92C20FDF7DCFB074607F0D3F92F6064
:102AD000022332224FF4E131286807F0ABF9346069
:102AE0003068F8BD60C3072064C30720F7B5654CA4
:102AF000054601222146002006F090FC38B16368AB
:102B0000782B04D1FFF70AF9032101F001FF5E4899
:102B1000002301221946006808F01CF85B4C0028CD
:102B200048D05B4B186802F0C7F85A4B5A491E68E8
:102B300030460AF0D1FC18B163786FF342030AE023
:102B4000564930460AF0C8FC637808B1012200E01B
:102B5000022262F342036370514B4F491E683046B4
:102B60000AF0BAFC18B163786FF3C4030AE04B496A
:102B700030460AF0B1FC637808B1012200E002227D
:102B800062F3C4036370474B43491E6830460AF042
:102B9000A3FC18B163786FF346130AE03F4930464F
:102BA0000AF09AFC637808B1012200E0022262F385
:102BB000461363703C4E3D4F336813F0010F07D14D
:102BC000304609F0E9FE18B130463D6009F0F0FEEC
:102BD0003B68EB1A012B05D1FFF744FF01F0FCFE27
:102BE000324B1D6062780023C2F3410103298DF846
:102BF00007308DF806308DF805308DF804308DF8EB
:102C000003308DF80230237808BF02218DF80030A0
:102C100002F0010304BF61F342021C494FF0960029
:102C200008BF4A706178C1F3410243EA8203C1F3ED
:102C3000C102032A01BF022262F3C401134A517088
:102C40006178C1F3C10243EA0212C1F34113032BBD
:102C500001BF022363F346110C4B597063780221C4
:102C6000C3F3411342EA83136A468DF80130FFF73C
:102C700091FE20B1FFF752F8042101F049FE03B0A4
:102C8000F0BD00BF80C3072078C3072074C30720AE
:102C9000ACC307209CC307200000C841000070415E
:102CA00068C307207CC30720A0C30720A8C3072050
:102CB0007047FFF78BBEFFF7C5BE10B50446FDF7A2
:102CC000E1FA204610BDFFFF70B50B4E05010B4B1E
:102CD000741953F82010201D08F0F8FAE368A06872
:102CE0009847A36870590133A36000231A46BDE8D2
:102CF0007040194607F028BEB0C307203C5E0200B2
:102D000008B50020FFF7E0FFFBE708B50120FFF75B
:102D1000DBFFFBE708B50220FFF7D6FFFBE708B5AE
:102D20000320FFF7D1FFFBE7F7B507460D462D4A15
:102D300000240D2312682C49009405F0BDFE2B4B96
:102D400087F831503B602A4D2A4B0322EB602A4B17
:102D50002146EB61294B0120EB62294BEB6307F025
:102D6000D1FD032228602146012007F0CBFD03227C
:102D700028612146012007F0C5FD224B28621E680C
:102D80000523C6F38F060093324623461E4901945D
:102D90001E4808F049F806230093324623461C4992
:102DA00001941C4808F040F807230093019423463F
:102DB00032461949194808F037F897F8313073B19D
:102DC00003222146012007F09DFD08232863324697
:102DD0000093019423461249124808F025F838461A
:102DE00003B0F0BD8C5D0200A05D0200545E0200E5
:102DF000B0C30720492A0100ED2A01005F2A010023
:102E0000612A0100885D0200A75D0200012D01001A
:102E1000AB5D02000B2D0100B05D0200152D01001D
:102E2000B65D02001F2D010038B517480C46415C05
:102E300000230131C9B2914202D00155184638BD74
:102E4000124D0355200128581A46194607F082FEF4
:102E50000546B0B90E4B53F8244020460CF0BAF9A1
:102E600020460CF0B9FC2B4602462146094802F0E8
:102E700043F8094A094B9A644FF08043AA221A7218
:102E80001D70012038BD00BFF0C30720B0C307206C
:102E9000905D0200BD5D0200EFBEADDE004002406D
:102EA000044608B5012008F03DFA94F8313023B10A
:102EB000012203212046FFF7B7FF0A220221204604
:102EC000FFF7B2FF0028EDD00A2201212046FFF7CC
:102ED000ABFF0028E6D00A2200212046FFF7A4FF1E
:102EE000E0E77047704708B501F042FB012008BDDC
:102EF00010B50446FDF7C6F9204610BD10B50446CE
:102F0000FDF7C0F9204610BD37B59020FDF7B8F9A0
:102F100004460321FFF742FA204605F09FFD3420C6
:102F2000FDF7AEF9054600244FF4007215490094F0
:102F3000042305F0C1FD144B28462B6005F08EFDDF
:102F40003420FDF79DF905464FF4FA620F490094CD
:102F5000042305F0B1FD0E4B28462B6005F07EFDE5
:102F60003420FDF78DF905462146FFF7DDFE2846A2
:102F700005F074FD2046214605F07EFD4FF0FF3040
:102F800003B030BDAD530200905E0200ED5E020062
:102F9000B05E020008B5FFF765FD01F07FFD01207E
:102FA00008BDFFFFFFFFFFFF2DE9F041FFF75AFDCE
:102FB0000023A0F81237FFF755FD90F80867002EA0
:102FC00000F00A82FEF7AAFE012101F08DFCFEF757
:102FD000A5FE022101F088FCFEF7A0FE032101F00E
:102FE00083FCFEF79BFE042101F07EFCFFF73AFD17
:102FF00001F057FDFFF736FD01F053FD0446FFF7E2
:1030000031FD01F04EFD8046FFF72CFD01F049FD3A
:103010000546FFF727FD01F044FD0746601040EA32
:10302000C81080B20AF04EF84FF072510AF0A2F8C0
:10303000044645EA072080B20AF044F84FF07A517E
:103040000AF098F89649054620460AF045FA30B34A
:10305000944920460AF02CFA08B3934C2378082BA5
:103060000ED1924E33780A2B03D9FFF7FBFC0023D5
:1030700002E0FFF7F7FC012380F8113700233370DB
:10308000284609F01DFE84A3D3E9002309F0D6FEEB
:1030900018B1864A1378013313700023B2E08149D6
:1030A00020460AF019FA30B3814920460AF000FAA6
:1030B00008B37D4C27787FB97C4E33780A2B04D92E
:1030C000FFF7D0FC80F8097704E0FFF7CBFC012381
:1030D00080F8093700233370284609F0F1FD6EA30C
:1030E000D3E9002309F0AAFE18B1704A137801331E
:1030F0001370012386E06E4920460AF0EDF938B3DB
:103100006C4920460AF0D4F910B3674C2778012F98
:103110000FD1664E33780A2B05D9FFF7A3FC0023A5
:1031200080F80A3703E0FFF79DFC80F80A77002358
:103130003370284609F0C4FD57A3D3E9002309F0F2
:103140007DFE18B1594A137801331370022359E0F8
:10315000584920460AF0C0F930B3574920460AF0D2
:10316000A7F908B3504C2378022B0ED14F4E337879
:103170000A2B03D9FFF776FC002302E0FFF772FC6D
:10318000012380F80B3700233370284609F098FD9F
:1031900041A3D3E9002309F051FE18B1434A137843
:1031A0000133137003232DE0434920460AF094F9BC
:1031B00020B1424920460AF07BF928BB0021204675
:1031C0000AF08AF9002839D000263D4920464FF000
:1031D00001070AF06DF900B9074617F0FF0F1AD082
:1031E000314C2378032B19D0284609F069FD2AA316
:1031F000D3E9002309F022FE18B12C4A13780133D9
:10320000137004232370D6E6002120460AF064F9E7
:103210000028DAD1E4E7002EE2D10FE0234E337824
:103220000A2B03D9FFF71EFC002302E0FFF71AFC6C
:10323000012380F80C3700233370D5E7204920465E
:103240000AF04AF900283FD01E4920460AF030F91A
:10325000002839D0144C2378042B0ED1134E337828
:103260000A2B03D9FFF7FEFB002302E0FFF7FAFB6E
:10327000012380F80D3700233370284609F020FD24
:1032800005A3D3E9002309F0D9FD18B1074A137843
:10329000013313700523B5E79A9999999999B93F24
:1032A000000087430000914300C00720F4C30720BB
:1032B00000009B430000A5430000AF430000B4435F
:1032C000000020410000F041534920460AF004F973
:1032D00030B3524920460AF0EBF808B3504C23783B
:1032E000052B0ED14F4E33780A2B03D9FFF7BAFBCB
:1032F000002302E0FFF7B6FB012380F80E3700231E
:103300003370284609F0DCFC41A3D3E9002309F01F
:1033100095FD18B1434A137801331370062371E702
:103320003E4920460AF0D8F830B33F4920460AF01B
:10333000BFF808B33A4C2378062B0ED1394E3378B8
:103340000A2B03D9FFF78EFB002302E0FFF78AFB6D
:10335000012380F80F3700233370284609F0B0FCB2
:103360002BA3D3E9002309F069FD18B12D4A137886
:1033700001331370072345E72B4920460AF0ACF8C8
:1033800000283FF418AE294920460AF091F8002899
:103390003FF411AE224C2378072B0ED1214E337807
:1033A0000A2B03D9FFF75EFB002302E0FFF75AFB6D
:1033B000012380F8103700233370284609F080FC81
:1033C00013A3D3E9002309F039FD18B1154A137886
:1033D00001331370082315E7FEF7A0FC012101F06B
:1033E0006FFAFEF79BFC022101F06AFAFEF796FCE9
:1033F000032101F065FAFEF791FC042101F060FA67
:10340000FFF730FB01F05EFB0120BDE8F08100BF5B
:103410009A9999999999B93F0000F0410000484262
:1034200000C00720F4C3072000008C420000B44213
:1034300010B54FF6FF74242303FB0101884209D025
:1034400043782BB1038C1344A34228BF2346038443
:103450002430F3E710BDFFFF37B5002302A840F882
:10346000043D0C4B04215B6898470B4B019A1C6888
:103470000546141B1A60042122460848FFF7D8FFAE
:10348000224602210648FFF7D3FF281C18BF01205F
:1034900003B030BDF8C30720C8C407200CC4072000
:1034A000E5C4072008B50B4B197803788B420A4B0B
:1034B0000BBF1A889A880132013214BF9A801A8091
:1034C000064B8170DB6820219847003018BF01202F
:1034D00008BD00BF09C007209DC40720F8C307200E
:1034E0000A4B02781B789A42094B0BBFDA881A897B
:1034F000013201320CBFDA801A810379C3F3C202B0
:10350000073262F3C5030371FFF7CCBF09C0072080
:103510009DC4072010B50749002311F823409A00E5
:10352000844202D10348104410BD0133042BF4D16E
:10353000002010BDB7C4072070B1C3780133DBB2DF
:10354000FF2BC37008D105480023C118CA78043383
:103550005208102BCA70F8D1704700BFB7C40720BB
:10356000242202FB01010346024630B5914206D0F7
:103570001446243212F8235C002DF7D10FE00446E4
:10358000002599420BD01A79C2F3C2001A8C42EA84
:103590000042AA4284BF1C4615462433F1E7204668
:1035A00030BDFFFF38B50546C90001F10804FFF73B
:1035B00053FF1C4B2A781B789A4204D102211A48E7
:1035C000FFF7CEFF0CE004211848FFF7C9FFEB78A6
:1035D00033B990F82330042443F0800380F823307B
:1035E000002380F8203080F8213002462B4690F8E6
:1035F000231080F8224021F07F01C4F306240C43FD
:1036000080F8234005F1200153F8044B8B4242F827
:10361000044BF9D1064A0379127862F3C5030371AA
:1036200038BD00BF09C00720E5C407200CC407202F
:1036300008C0072008B5FFF76DFF0346D8B9FFF7AC
:1036400069FF0346B8B90D4AD378D179D07A8B4255
:1036500096BF1946131D1346814294BF0846084B76
:10366000D17B084A814238BF1346074900221A60BD
:10367000CA7A0132CA72184608BD00BFB7C4072013
:10368000BFC40720C3C407209DC407202DE9F84FFD
:1036900005460C464FF0240909FB0219DFF868A122
:1036A000DFF868B14E1C4FF000084C4500F09A80DE
:1036B00094F823301A0624D5B5B12A7861788A4265
:1036C00005D16F7816F8010C874200F08D80E878FC
:1036D00050B16878884207D116F8011C914203D195
:1036E000A979A27991427FD094F82220218C03F00D
:1036F0007F0342EA0323994271DB2046FFF7D2FEA3
:1037000072E06278002A6AD06DB3297901F0C001B5
:10371000C02917D116F8010C6978884202D128789F
:10372000904261D0E778A87887420CD191420AD1C3
:1037300016F8010C2978884205D1A079A979884228
:1037400001D151E079B1A878E17888420BD169784C
:10375000914208D116F8010C2978884203D1A0794A
:10376000A979884246D094F82210208C03F07F0378
:1037700041EA0323984232DB237984F82080C3F3A3
:10378000C201CFB284F821801FB12046FFF7A8FE06
:1037900025E003F0C003C02B19D016F8010C9AF8ED
:1037A0000030984213D1E3789A4210D07BB163790C
:1037B000032262F307136371E1702046FFF790FE66
:1037C00023799BF8002062F3C503237100E00127F1
:1037D0006078FFF79FFE08B1C0F8008027B9243455
:1037E000243662E7BDE8F88F2422002120460AF043
:1037F000F2FAF4E7237984F820806FF3C50384F8A4
:1038000021802371EBE700BF09C0072008C0072013
:10381000431EDBB2FD2B9DBF024B18700120002020
:10382000704700BF09C00720014B1878704700BFE0
:1038300009C0072007289CBF014B1870704700BFC4
:1038400008C007202DE9F743044691461E469DF81F
:1038500028500F46002966D0364B93F8008041452A
:1038600063D00F2E61D8002861D0202200210AF0F9
:10387000B2FAFF2F237914BF09F00302002262F38A
:103880008713032262F302032B4A6770127884F8CD
:10389000008062F3C503294A2371137884F80280FB
:1038A0000133DBB21370A3710BAB019315B94FF069
:1038B00001081BE004F10809019AE07913465268F7
:1038C00053F8081B00EB02085FFA88F8013DB8F1D5
:1038D000180F0193EDB207D848440AF056FA84F85D
:1038E0000780002DE8D1E2E74FF00008DFF85090A4
:1038F0000123384689F80030FFF70CFE0546FFF734
:103900001BFE002389F80030637925B966F307139D
:103910006371E57005E0AA7862F3071363716B7851
:10392000E370404603E0084601E00020FFE703B0F3
:10393000BDE8F08309C0072008C007209CC4072009
:10394000A9C40720124B012270B51A7004461E4606
:1039500008B9002518E0FFF7A5FD05460028F8D0B6
:10396000237903F0C003402B06D0C02B0AD1E378A3
:1039700053B162789A4207D0617920460909FFF76E
:1039800011FE01E0802BF7D000233370284670BD74
:10399000A9C4072082B02DE9F0439146421ED2B25D
:1039A0008DB0FD2A05460E4615939DF8688001D915
:1039B000002057E0002BFBD0179F002FF8D0199B59
:1039C000002BF5D0189B002BF2D0169B002BEFD0CC
:1039D0004822002126480AF0FEF9902200212548BD
:1039E0000AF0F9F91022002123480AF0F4F9234BD8
:1039F00000241C605C609C60214B1C605C609C60CF
:103A0000204B1D70204B214D1E7015AE0FCE0FC5E3
:103A10003368182221461E482B600AF0DCF949461B
:103A200017221B480BF01EFF21462046B8470028EE
:103A3000BED0B8F1000F02D1FFF70EFD12E0062351
:103A40000293144B2246019301230093FF2104A803
:103A5000FFF7F8FE0028ABD004A8FFF773FF00289B
:103A6000A6D0E9E70DB0BDE8F04302B0704700BF53
:103A7000E5C407200CC40720B7C40720ABC4072047
:103A80009DC4072009C00720AAC40720F8C3072047
:103A9000CCC40720F35E020030B5182B8DB016D8C9
:103AA000B2FA82F41D1C18BF01256409AC420ED085
:103AB0000293019200950A469DF84030014604A801
:103AC000FFF7C0FE18B104A8FFF73CFF00E000209C
:103AD0000DB030BD13B5537914781B09009302461D
:103AE0000B4620460321FFF7D7FF02B010BDFFFFB2
:103AF00000231A4630B5084C14F82350990035B10C
:103B0000904202D10448084430BD0132D2B20133A0
:103B1000042BF1D1002030BDB7C407200023184684
:103B2000044A12F8231009B10130C0B20133042B4A
:103B3000F7D17047B7C407202DE9F04188B02022A3
:103B4000002168460AF047F9A14B1B7803F0FF04F7
:103B5000002B40F039819F4F20213B6968469847F0
:103B6000002800F084809C4D6B8801336B80FFF748
:103B7000D5FF9DF80420A87202F00703032B04D0A0
:103B8000964A137843F0010309E0954B1D789DF8A0
:103B90000230AB4205D1914A137843F0020313700F
:103BA000E4E0C2F3C2029DF800E09DF806008D49F2
:103BB000D6B204EB440313F801C0F4450BD10B4417
:103BC00093F801C0844506D1997801248E1B18BF53
:103BD00001269A7018E00134042CEAD182490B685E
:103BE0009A70804A587002F10900834283F800E01D
:103BF00040F0C9800A609DF800009DF802308342C1
:103C000040F0C480002426469DF80200FFF712FD14
:103C10009DF8022002709DF80220427000228270FE
:103C2000FFF78AFC04B116B39DF80030AB4200F0F8
:103C30009C809DF80160FF2E1BD13B6820216846C7
:103C4000984720B9654A137843F0040313709DF830
:103C5000053003F00F02511C61F303038DF80530AA
:103C6000C3F303139A4202DA6846FFF71BFC0024F1
:103C70007CE0B5422BD164B99DF807304BB13B686D
:103C800020216846984720B9544A137843F004032A
:103C900013709DF8043003F0C003402B12D19DF83F
:103CA00007306A4613B91821504808E00C214A48E9
:103CB000FFF710FF002858D100216A460846FFF799
:103CC00009FF52E09DF80330002B4ED1F4E7484B3A
:103CD0001B78002BCBD09DF8054004F00F074FEA6E
:103CE00014184745C3DA013767F303043046FFF77A
:103CF00011FC8DF805409DF80340A54221D19DF8A7
:103D0000041001F0C001402906D0A1F180035A42FD
:103D10005A41144610B90CE0012260B1C029437821
:103D200005D19E4203D0003318BF012304E00023D5
:103D300002E0C0290ED10346134303F0010420B969
:103D400008E094B908B941460CE043788DF8033097
:103D5000857802E000258DF803506846FFF7A2FB46
:103D60001CB129466846FFF71DFC6C46FFF774FB43
:103D7000204604221F49FFF789FC02221E492046E3
:103D8000FFF784FC20E003330B6034E785423FF407
:103D900039AFFFF74FFC0446FFF7CEFB23783BB16A
:103DA0009DF80530A27803F00F0393423FF72AAF46
:103DB0009DF8003023709DF8023063709DF8053047
:103DC000C3F30303A3701DE708B0BDE8F08100BF93
:103DD000A9C40720F8C307209DC40720E4C4072016
:103DE00009C00720ABC4072004C00720CCC40720AB
:103DF000AAC407200CC40720E5C4072000231846E6
:103E0000094AD118497809B10130C0B22433902B46
:103E1000F7D1064B5A780AB10130C0B293F8253079
:103E20000BB10130C0B270470CC40720E5C40720B5
:103E300008B5FFF76FFB064B28B18278187802FBB4
:103E40000000C00008BD18781823584308BD00BF03
:103E500008C0072003490B6803604B6843608B6808
:103E6000836070479DC4072070B53E4C4FF4803589
:103E7000E5613D4CA0602046C5683B4CED06FBD497
:103E8000A0680D46C0B20BB923465FE02346002A66
:103E900063D0072A0E782DDD9E604E78083A9E602A
:103EA0008E789E60CE789E600E799E604E799E6080
:103EB0008E799E6001F10806C97999609969490770
:103EC000FCD5A1682970A1686970A168A970A16872
:103ED000E970D968C906FCD4A168083505F8041C46
:103EE000A16805F8031CA16805F8021CA16805F883
:103EF000011C1AE0032A1ADD9E604E78043A9E6087
:103F00008E789E600E1DC9789960D968C906FCD468
:103F1000A168043505F8041CA16805F8031CA16814
:103F200005F8021CA16805F8011C3146AFE7013114
:103F30009E60013ADE68F606FCD4A668013505F8F5
:103F4000016CA4E7E668F606FCD4A6686E1AB242D5
:103F500003DD15F8016B9E60F4E7024B4FF48032ED
:103F60009A6170BD00C009200080084007B5002399
:103F700002A901F8013D01231A4600F01F00FFF7D6
:103F800073FF9DF8070003B05DF804FB13B502ACA6
:103F900004F8011D00F01F0000230122214640F01B
:103FA0002000FFF761FF02B010BD08B51720FFF732
:103FB000DDFFC0F3001008BD70210720FFF7E6BF4A
:103FC0000A4600230146A020FFF74EBF08B5002097
:103FD000FFF7CCFFBDE8084000F0FE010020FFF72E
:103FE000D5BFFFFF024B4FF08072DA61704700BF10
:103FF00020C0092008B50020FFF7B8FF40F00101FC
:10400000C9B20020FFF7C2FF024B4FF080729A61E5
:1040100008BD00BF20C0092020210720FFF7B6BF40
:1040200000231A461946E120FFF71EBF37B50446A4
:104030000D46FFF7F5FF20462946FFF7C1FF0D4B60
:104040004FF080721C469A610022ADF80620BDF840
:10405000063001339BB2ADF8063033B94FF08073B0
:10406000E361FFF7DDFF03B030BDFFF79EFF0028DF
:10407000EDD0F3E720C0092008B51720FFF776FF41
:1040800000F0010080F0010008BD40210720FFF78B
:104090007DBF08B50A46012301466120FFF7E4FE13
:1040A000C0F3420008BD00231A461946E220FFF77C
:1040B000DBBE70B5064600200D461446FFF756FFDE
:1040C00016B100F0BF0002E040F04000C0B215B1F0
:1040D00000F0DF0101E040F0200114B101F0EF0138
:1040E00001E041F010010020BDE87040FFF74EBF35
:1040F00010B504460020FFF739FF14B900F0F701AE
:104100000DE0012C04D100F0FB0141F0080106E0B4
:10411000022C14BF40F0080140F00C01C9B200208D
:10412000BDE81040FFF732BF08B50020FFF71EFFC3
:10413000BDE8084040F00201C9B20020FFF726BFE9
:1041400008B50020FFF712FFBDE8084000F0FD01B0
:104150000020FFF71BBF40F6DD13984206D840F65B
:104160006213B0F5166F38BF184600E01846A0F588
:104170001661C9B20520FFF709BF10B50446062035
:10418000FFF7F4FEFA2C00F0D70102D141F0200134
:1041900004E0B4F5FA6F08BF41F008010620BDE85D
:1041A0001040FFF7F3BE10B504460620FFF7DEFE11
:1041B000032C28BF032420F0060040EA4401C9B2C2
:1041C0000620BDE81040FFF7E1BEF9284FF0FA03E2
:1041D00005D9B0F57A6F88BF4FF47A6000E01846D1
:1041E000B0FBF3F00F2900F1FF30C0B228BF0F2160
:1041F00041EA0011C9B20420FFF7C8BE1130C0B2B5
:10420000162804D8202928BF2021FFF7BFBE7047F9
:10421000032804D0042814BF0321022100E0012157
:104220000320FFF7B3BE0A46002301463020FFF704
:104230001BBE0A46002301462A20FFF715BEFFFFDA
:1042400073B50E4615460446FFF72DFFFFF7E8FE4F
:104250002B4B4FF08072DA61FFF772FF002211469C
:104260000120FFF726FFFFF7A7FE0220FFF740FF20
:104270003046FFF770FF2846FFF77FFF0320FFF768
:1042800092FF03210220FFF781FE00210120FFF7AA
:104290007DFE03214FF4FA70FFF797FF21460020BF
:1042A000FFF7ACFF00211220FFF770FE0021132062
:1042B000FFF76CFE00211420FFF768FE0021152097
:1042C000FFF764FE00211620FFF760FE0D4B186813
:1042D0001B79009005208DF80430FFF799FF6846A0
:1042E0000521FFF7A0FF05216846FFF7A2FFFFF7B2
:1042F0001BFF4FF4FA6004F079FE02B070BD00BFFE
:1043000020C00920FA5E020070B5174E326822B94B
:104310002021032006F0F6FA3060144D2A6822B9F5
:104320002021012006F0EEFA2860114C216821B905
:104330000322012006F0E6FA20604FF4FA6240F60C
:10434000C3112020FFF77CFFFFF754FE1620094A17
:10435000012105F043FA306828B1286818B12068B7
:10436000003018BF012070BD34C5072030C50720BC
:1043700038C507202144010070B50379014603F0D8
:10438000C003C02B0CBF0E4B0E4B88B01D68002322
:1043900006461A46284606F0D7FA044660B9034690
:1043A00002466946284606F0D5FB2346224631469A
:1043B000284606F0C9FA0446204608B070BD00BF82
:1043C00030C5072034C5072038B504460D46FFF731
:1043D0002BFA237883420AD0E37843B90AF02AFF04
:1043E000BD2300F0030000FB033004F0FFFDFFF7E6
:1043F000F9FDFFF7EBFDA9B22046FFF717FEFFF727
:104400000BFEFFF7F7FD07F0A9F9022804D1034BD3
:104410000021186806F06CFB012038BD38C5072064
:1044200007B5002302A941F8043D084B186806F0BF
:104430005FFB019B3BB1064B4FF080521A60BFF30C
:104440004F8FBFF36F8F03B05DF804FB38C50720B3
:1044500004ED00E038B504460D46FFF70DFE48B107
:10446000A9B22046FFF715FEFFF706FE08B9FFF7D1
:104470000CFE012038BD2DE9704305460E4614465A
:1044800007F06CF9022807D122460023314628465E
:1044900006F060FBC4B21DE007F012FD4FF47A7223
:1044A000002309F073F810EB040841F10009002320
:1044B0001A463146284606F04DFBC4B254B907F0FF
:1044C000FFFC4FF47A72002309F060F8894508BFB9
:1044D0008045ECD22046BDE87083042938B50546F6
:1044E00003D1041C18BF012400E0002407F0E8FCFD
:1044F0002CB14FF47A72002309F048F82860204666
:1045000038BDFFFF00B50C4B8DB009930B4B0C4A27
:104510000B930C4B0A930CAB43F8102D0022049222
:104520000FCB8DE80F00084B084A01216A20FFF7E6
:1045300031FA0DB05DF804FB094301005544010058
:10454000DB440100C943010079430100FF5E020022
:10455000024B0A4601461868FFF78DBF34C5072095
:10456000024B0A4601461868FFF785BF30C5072091
:1045700008B507F0F3F80F4B02285B6913D15A0214
:104580000DD5FFF73BFC00280B484FF0000314BF8C
:1045900001224FF0FF321946006806F0DBFABDE851
:1045A0000840FFF7C9BA5B02F9D5FFF727FC0028DE
:1045B000F5D108BD00C0092038C50720F0B58646F2
:1045C00087B0114F4C1101F01F0501AE457004700A
:1045D0000FCF0FC670463B680321336006AB03EB79
:1045E000840353F8143C6D00CEF80430E30003F16B
:1045F000804303F530331A6801FA05F522EA050510
:104600001D6007B0F0BD00BF045F02004168407844
:104610000A680123834022EA03030B607047416864
:1046200040780A680123834013430B607047417848
:10463000426801238B4093617047417842680123AF
:104640008B40D3617047FFFF30B543780578064C47
:104650005B0054F83520032101FA03F322EA030337
:1046600044F8353030BD00BF40C0024010B5094AA3
:1046700004780123407821B152F8241083400B4381
:1046800004E052F82410834021EA030342F8243066
:1046900010BD00BF68C0024010B50446FFF7B6FF6A
:1046A00000212046FFF7E2FF2046FFF7CDFF20461E
:1046B00010BD13460A460179006805F056BD1FB5C6
:1046C000002204AB047923F8042D02220092006832
:1046D0000A46214605F034FD9DF80C009DF80D308A
:1046E00043EA002004B010BD10B5044619222A2167
:1046F000FFF7DFFF0D222179206805F025FDA0F1ED
:104700002A035842584110BD044A13881F2B9FBFEB
:10471000581C1080024A42F82310704740C50720F9
:1047200044C50720154AF0B513881646012B21D938
:10473000134A00201546013B984206DA5168146876
:104740000130091B42F8041BF6E700210C466A6899
:104750004FF0010E02EB52008AB2934208DD55F889
:1047600022700131B8423CBF0EFA02F21443F3E763
:10477000044B1C6000233380F0BD00BF40C5072000
:1047800044C507203CC5072008B50121022007F0D9
:1047900031FB084B01209A6A22F007029A629A6A5A
:1047A00042F006029A62044AD36843F03003D360B1
:1047B00008BD00BF0080004000C0024008B5044BA7
:1047C000417101F07F015A5C0321FFF772FF08BDC0
:1047D000185F020008B5044B817101F07F015A5C3B
:1047E0000221FFF766FF08BD185F020038B50446D6
:1047F0000179006805F0C4FC054688B10022062155
:104800002046FFF756FF002207212046FFF751FF01
:104810002E212046FFF7D2FF2E212046FFF7DAFF98
:10482000284638BD642370B5B1FBF3F404FB1311C3
:10483000CCB20A21B4FBF1F501FB15413031C9B20C
:104840000646FFF7C7FF092C88BF05F13001304647
:10485000BDE8704094BF2021C9B2FFF7AFBF01206F
:104860007047FFFF38B50D46044607F0ADF805F078
:104870000F032370114B15F0010F4FF0010214BF0D
:10488000DA619A61227812F0020F4FF0020214BF2F
:10489000DA619A61227812F0040F4FF0100214BF0F
:1048A000DA619A61227812F0080F4FF4807214BF17
:1048B000DA619A61BDE8384007F096B820C0092057
:1048C00038B50D46044607F07FF8691E012303FA48
:1048D00001F1237820461943C9B22170FFF7C2FFC6
:1048E000BDE8384007F080B838B50D46044607F0FB
:1048F0006BF8691E012303FA01F12378204623EAAD
:1049000001012170FFF7AEFFBDE8384007F06CB839
:1049100038B50D46044607F057F8691E012303FA1F
:1049200001F1237820465940C9B22170FFF79AFF60
:10493000BDE8384007F058B801207047022004F065
:10494000EBBB01207047FFFF044B5B69180B00F0C5
:104950000C00C3F341231843704700BF20C0092057
:1049600010B5044681220121FFF7A3FE012221791F
:10497000206805F0E9FB10F0600F14BF0120002053
:1049800010BD38B500210446FFF799FE812205B21B
:1049900001212046FFF78DFE102095FBF0F008F076
:1049A00095FB4FF0765108F0E5FBA16808F0DAFAC4
:1049B00038BDFFFF08B5FFF7E4FF054908F0DAFB53
:1049C000044908F08BFC4FF0844108F0CBFA08BD95
:1049D000000010410000A0401D4A90F8091713780C
:1049E00081F0010161F3000390F80A1781F00101E1
:1049F00061F3410390F80B1781F0010161F3820329
:104A000090F80C1781F0010161F3C30390F80D17C2
:104A100081F0010161F3041390F80E1781F0010198
:104A200061F3451390F80F1781F0010161F38613CC
:104A300090F8101781F0010161F3C713137090F81B
:104A40001137517883F0010363F30001517070470F
:104A500074C3072038B5064C236833B92C20FBF704
:104A60000FFC054605F006FA2560206838BD00BF3A
:104A700064C3072038B50D46074CFFF7EBFF21460E
:104A8000A52205F097FAFFF7E5FF2A462146BDE883
:104A9000384005F08FBA00BF985F02002021FFF771
:104AA000E9BF07B5FFF7D6FF03684FF0FF321B6879
:104AB00001A9984710B19DF8040000E0FF2003B061
:104AC0005DF804FBF8B5044600F23B7500F242764F
:104AD000204615F8017FFFF7E4FF874204D1B54275
:104AE000F6D1012384F80837F8BDFFFF08B507F0B9
:104AF000E7F908F0F9FA014B186008BD90C30720E8
:104B000008B507F0DDF908F0EFFA064B1860064B20
:104B1000196808F025FA054908F0E0FB044B186015
:104B200008BD00BF6CC3072090C3072000001343DB
:104B30009CC3072008B507F0C3F908F0D5FA014B6C
:104B4000186008BDA4C3072008B507F0B9F908F03C
:104B5000CBFA014B186008BD98C3072008B507F0D1
:104B6000AFF908F0C1FA064B1860064B196808F057
:104B7000F7F9054908F0B2FB044B186008BD00BF07
:104B800094C3072098C307200000134368C307207D
:104B900008B507F095F908F0A7FA094B1860094B1A
:104BA000196808F0DDF9084908F098FB074B002167
:104BB0001860074B1868BDE8084005F099BF00BFB2
:104BC00070C30720A4C30720000013437CC3072041
:104BD00078C30720094A00231360094A1360094A71
:104BE0001360094A1360094A1360094A1360094AAD
:104BF0001360094A1360094A1360704790C3072085
:104C00009CC307206CC3072098C3072068C30720F4
:104C100094C30720A4C307207CC3072070C30720C8
:104C200008B51948FFF7FBFC1848FFF7F8FC1848CF
:104C3000FFF7F5FC1748FFF7E9FC1748FFF7E6FC1C
:104C40001648FFF7E3FC164A0121002004F0DEFDC0
:104C500000210846134A04F0D9FD134A012102201D
:104C600004F0D4FD114A0021022004F0CFFD104AC7
:104C70000121042004F0CAFD0E4A0021042004F0A2
:104C8000C5FD012008BD00BFDCC50720E4C5072025
:104C9000ECC50720D4C50720CCC50720C4C5072014
:104CA000014B0100ED4A0100914B0100354B010021
:104CB0005D4B0100494B010010B5064C2046FFF743
:104CC000B6FC192004F092F92046BDE81040FFF729
:104CD000B4BC00BFDCC5072070B5204E204D214C70
:104CE00041213046FFF76AFC30461F4E2A462146D6
:104CF000FBF728FB43213046FFF760FC30461B4E94
:104D00002A462146FBF71EFB45213046FFF756FC9D
:104D10003046174E2A462146FBF714FB4021304609
:104D2000FFF74CFC3046134E2A462146FBF70AFBA0
:104D300042213046FFF742FC30460F4E2A462146BC
:104D4000FBF700FB44213046FFF738FC2A4621469A
:104D50003046BDE87040FBF7F5BA00BFDCC5072060
:104D600014C3072099460100E4C50720ECC50720BD
:104D7000D4C50720CCC50720C4C507202DE9F04FB6
:104D8000ADF2546D0C4690460146012282A8994628
:104D900002F03EF8002867D121460A220DF22C408D
:104DA00002F036F8044620B182A802F09AFA2046B2
:104DB0005AE06D46064607462860019007F080F8E5
:104DC0004FF47A72002308F0E1FB2B4683464FF440
:104DD000007202A982A802F0B5F88246E0B92A68FA
:104DE000D2B107F06DF84FF47A72002308F0CEFBD1
:104DF000B0EB0B00074407F063F84FF47A7200231E
:104E000008F0C4FB01AB83462A6802A90DF22C40CE
:104E100002F050F98246B0B1B8F1000F01D0C8F8E5
:104E20000070B9F1000F01D0C9F80060DDF87836E4
:104E300003B11C6082A802F054FA0DF22C4002F07B
:104E400050FA504610E001992A689142E4D107F0E7
:104E500037F800234FF47A7208F098FB2B68B0EB18
:104E60000B0006441C44A9E70DF2546DBDE8F08F19
:104E7000F0B5ADF50B7D0E46174601461D460122E5
:104E8000002301A8009301F0C3FF044670B91DB1CF
:104E9000294601A802F037FA6B463A46314601A886
:104EA00002F050F8044601A802F01BFA20460DF566
:104EB0000B7DF0BDF0B5ADF50B7D0E4617460146F6
:104EC0001D460A22002301A8009301F0A1FF044619
:104ED00070B91DB1294601A802F015FA6B463A4691
:104EE000314601A802F0E6F8044601A802F0F9F9FB
:104EF00020460DF50B7DF0BDF0B5ADF50B7D0E46F2
:104F0000174601461D461222002301A8009301F016
:104F10007FFF044680B90DB1294600E0049901A83D
:104F200002F0F1F96B463A46314601A802F0C2F8A8
:104F3000044601A802F0D5F920460DF50B7DF0BD21
:104F40007F2810B516D931B1FF2812D80A4B803806
:104F500033F8100010BD084A32F811408BB2844279
:104F600003D001318029F7D10B4603F18000C0B294
:104F700010BD002010BD00BF9C5F02000649002349
:104F800031F8132032B1824201D00133F8E7034AED
:104F900032F81300704700BF9C6002007C62020080
:104FA00010B501200C4605F053FD2060003018BFFD
:104FB000012010BD0120704710B5044606F0CEFB5D
:104FC00002280AD1002319464FF0FF32204605F08F
:104FD000C1FD431E5842584110BD012010BD10B5FF
:104FE000044606F0BBFB022807D100232046BDE89B
:104FF00010401A46194605F0A7BC10BD10B504466E
:1050000004F086FE24B1012C06D100F081F901E004
:1050100000F002FD044600E0042404F091FE204666
:1050200010BD28B1012801D00420704700F028BA33
:105030007047F8B507460C4615461E4604F068FE54
:105040003FB1012F0CD132462946204600F020FA0C
:1050500004E032462946204600F02AFD044600E0DE
:10506000042404F06DFE2046F8BDF8B507460C4652
:1050700015461E4604F04CFE3FB1012F0CD13246BE
:105080002946204600F050FA04E0324629462046E0
:1050900000F030FD044600E0042404F051FE2046F8
:1050A000F8BD70B506460C46154604F031FE36B123
:1050B000012E0AD12946204600F090FA03E0294645
:1050C000204600F037FD044600E0042404F038FEDA
:1050D000204670BD08B506F0F3FE4FF47A72002347
:1050E00008F054FA08BDFFFF10B5044607F062F857
:1050F000074BB0FBF3F00223B0FBF3F2944202D370
:10510000044A136110BDB3F5807FF9D00233F3E791
:1051100040420F0000000340044B9860DA68D2065A
:10512000FCD4024B9868C0B2704700BF0000034037
:1051300070B5FFF7CFFF00F5FA74FF20FFF7ECFF23
:105140000025FF20FFF7E8FFFF28064605D0FFF700
:10515000C1FFA94208BFA042F3D3304670BDFFFF94
:1051600038B5064C4FF00075E561FFF7E1FF044AE2
:10517000A561137843F00103137038BD20C00920E6
:105180000AC007202DE9704306460D46FFF7A2FF2F
:10519000643080464FF00009FF20FFF7BDFFFF2875
:1051A00008D1FFF797FF494508BF4045F4D30020D9
:1051B000BDE87083FE28FAD1102D06D900224FF4E5
:1051C0000071304604F042FD19E0341D0435FF2023
:1051D000FFF7A2FF04F8040CFF20FFF79DFF04F87F
:1051E000030CFF20FFF798FF04F8020CFF20FFF7E5
:1051F00093FF043404F8050C2B1BDE42E7D1FF209B
:10520000FFF78AFFFF20FFF787FF0120BDE87083CB
:1052100070B506460D46FFF78BFFFF28044619D1EF
:105220002846FFF779FFFD2D16D022464FF4007176
:10523000304604F00BFD2046FFF76EFF2046FFF7D7
:105240006BFF2046FFF768FF00F01F00431F584226
:10525000584170BD002070BD012070BD020638B5F8
:1052600004460D4607D500217720FFF7F7FF0128F8
:1052700038D804F07F041C4B4FF000729A61DA6159
:10528000FFF756FFFF28014628D12046FFF744FFCD
:10529000280EFFF741FFC5F30740FFF73DFFC5F3B9
:1052A0000720FFF739FFE8B2FFF736FF402C17D091
:1052B000482C14BF01208720FFF72EFF4C2C02D171
:1052C0000846FFF729FF0A21FF20FFF725FF030605
:1052D00008D5013911F0FF01F6D138BDFF2038BDE6
:1052E0009520EEE738BD00BF20C00920064A0749D7
:1052F00013784969DBB2490154BF03F0FD0343F061
:1053000003031370704700BF0AC0072020C00920A4
:105310002DE9F743FFF7EAFF564B1A781E4612F0C5
:10532000020F01D01878A1E00120FFF7DDFE0A246A
:10533000FF20013CFFF7F0FE14F0FF04F8D14E4FC0
:105340004FF00073FB6121464020FFF787FF0128E3
:1053500002D04FF0000875E0FFF7BCFE4FF4D571A6
:1053600000F57A754820FFF779FF012841D10DF14A
:105370000408FF20FFF7D0FE08F804000134042CD5
:10538000F7D19DF80630012BE3D19DF80730AA2B09
:10539000DFD12C460025FFF79DFEA94208BFA042A1
:1053A00006D3FFF797FEA94208BFA042D1D207E07B
:1053B0004FF08041E920FFF751FF0028EBD1F0E7E3
:1053C00000217A20FFF74AFF0028C2D10146FF20C2
:1053D000FFF7A2FE08F8010001310429F7D19DF87A
:1053E000043013F0400F14BF4FF00C084FF00408C6
:1053F00028E02146E920FFF731FF02282C4635BF7F
:105400004FF002084FF001084FF0E9094FF0410951
:105410000025FFF75FFEA94208BFA0420BD3FFF7AC
:1054200059FEA94208BFA0420CD34FF4007150208E
:10543000FFF714FF06E000214846FFF70FFF0028A2
:10544000E7D1ECE70D4B83F800804FF00073BB61B0
:10545000B8F1000F07D03378182003F0FE03337043
:10546000FFF742FE01E0FFF77BFE3078C0B203B0E9
:10547000BDE8F0830AC0072020C00920F4C507203A
:1054800008B5FFF733FF014B187808BD0AC00720A5
:1054900070B5144606460846FFF728FF002C39D0A1
:1054A0001E4B1B78DB0737D41D4B4FF00072DA61BF
:1054B0001C4A1D46127812F0080F08BF4002012C4A
:1054C00001460CD15120FFF7C9FEE0B94FF400713D
:1054D0003046FFF757FEB0FA80F4640913E052201B
:1054E000FFF7BCFE78B94FF400713046FFF74AFE73
:1054F00028B1013C14F0FF0406F50076F3D1002139
:105500004C20FFF7ABFE4FF00073201CAB6118BFBF
:10551000012070BD042070BD032070BD0AC00720AB
:1055200020C00920F4C50720F8B5144606460F46EA
:10553000FFF7DCFE002C44D0254B1A78D20742D46A
:105540001B785B0741D4234B4FF00072DA61224A8B
:105550001D46127812F0080F08BF7F02012C0CD1F3
:1055600039465820FFF77AFE18BBFE213046FFF778
:105570004FFEB0FA80F464091CE012F0060F03D06D
:105580002146D720FFF76AFE39465920FFF766FE0D
:1055900080B9FC213046FFF73BFE28B1013C14F0F6
:1055A000FF0406F50076F4D1FD210020FFF730FE60
:1055B00000B901244FF00073201CAB6118BF01201B
:1055C000F8BD0420F8BD0320F8BD0220F8BD00BFDF
:1055D0000AC0072020C00920F4C507207FB50D466A
:1055E000FFF784FE05281AD12B78012B00F00481E7
:1055F00003D3022B0BD0042001E1824B586910F039
:10560000806440F0F980FFF7ABFD2046F7E07D4B6A
:105610005B6983F08063C3F380636B70ECE07A4B6B
:105620001B78DB0700F1EA800E2800F2DF80DFE85C
:1056300000F008124F53DDDDDDDDDDDDAAAFB2BBCA
:10564000CB00704B4FF00072DA61FFF771FDFF384D
:1056500018BF0120CBE000214920FFF7FFFD0446E1
:1056600008B10120C3E010216846FFF78BFD002838
:10567000F7D09DF800309DF808109B09012B9DF88C
:10568000093006D1013303EB012189B28902296077
:105690006BE09DF807209DF80500920002EB911148
:1056A0009DF806200131920202F4406211449DF8F7
:1056B0000A2000F00F0000EBD2105A00023002F076
:1056C00006028318DBB289B2093B01FA03F34BE00F
:1056D0004FF400732B8059E04C4E337803F00403F1
:1056E00003F0FF01F3B10021CD20FFF7B7FD002843
:1056F000B7D1FF20FFF710FD10216846FFF742FDEC
:105700000028AED03021FF20FFF706FD481E10F024
:10571000FF01F8D19DF80A3008461A09102393407A
:105720002B6064E04920FFF799FD0446002898D1DA
:1057300010216846FFF726FD002892D036789DF8A4
:105740000A2006F0020606F0FF009DF80B3076B145
:10575000520002F07E0202EBD3135A1C9DF80D306A
:105760009B09013B02FA03F32B6020463FE0D9007E
:1057700001F01801C2F3840201EB5311531C01FB29
:1057800003332B6033E0214B1B782B7000202EE07D
:105790000021492001E000214A20FFF75FFD002899
:1057A0007FF45FAF10211AE000217A20FFF756FD49
:1057B00000287FF456AF291DFF20FFF7ADFC05F848
:1057C000010B8D42F8D1E1E70021CD20FFF746FD26
:1057D00000287FF446AFFF20FFF79EFC40212846BB
:1057E000FFF7D0FCB0FA80F0400900E00420054B40
:1057F0004FF000729A6102E0002000E0032004B044
:1058000070BD00BF20C009200AC00720F4C50720D2
:10581000054B1B78253BDBB2032B9ABF034A52F89A
:1058200023000020704700BFF8C507206464020011
:105830001B4B2DE9F0411D880646B5F5007F0F464C
:10584000144602D12A46214613E0B5F5807F09D1DE
:105850002A4621463846B0472A4604F5807107F5A6
:10586000807016E0B5F5047F05D1510A89024FF426
:10587000007238460DE0B5F5847F0ED1140A61023E
:105880004FF480723846B047611C4FF48072490271
:10589000B8183346BDE8F0411847BDE8F08100BFB5
:1058A000F6C5072030B52F4C03462546002958DDA4
:1058B00007291A782DDDA2605A780839A2609A78F3
:1058C000A260DA78A2601A79A2605A79A2609A7905
:1058D000A26003F10802DB79A360A3695B07FCD532
:1058E000AB680370AB684370AB688370AB68C37020
:1058F000E368DB06FCD4AB68083000F8043CAB6816
:1059000000F8033CAB6800F8023CAB6800F8013CCF
:105910001AE003291ADDA2605A780439A2609A7845
:10592000A2601A1DDB78A360E368DB06FCD4AB68D9
:10593000043000F8043CAB6800F8033CAB6800F8A6
:10594000023CAB6800F8013C1346AFE70133A260AC
:105950000139E268D206FCD4AA68013000F8012CB3
:10596000A4E730BD0000034007B50B0C8DF80530EF
:105970008DF807100B0A04218DF804000DEB0100CF
:105980008DF80630FFF78EFF03B05DF804FBFFFFD4
:10599000F7B5174606460E4C40250323E5618DF802
:1059A00004300B0C8DF805308DF807100B0A04211C
:1059B0000DEB01008DF80630FFF774FF0022394629
:1059C000304604F043F9A561A561A56103B0F0BDBF
:1059D00000C009200E4B4022DA610E4BD7229A609C
:1059E0001A46D1680B4BC906FBD49A681A46FF21A8
:1059F0009960D068C006FCD4906810F0800FF7D092
:105A0000034B40229A61C0B29A619A61704700BF0D
:105A100000C0092000000340F7B5FFF7DBFF1F4C73
:105A2000002323801E4B1F4E40271A889B78F76166
:105A30000321054601A8ADF804208DF80630FFF7D4
:105A400031FF9DF805209DF806301F2AB7612146D9
:105A5000B761B7611CD1A3F12502032A18D8124AF5
:105A6000252B137005F0010006D1002814BF4FF458
:105A700080734FF4847305E0002814BF4FF4007363
:105A80004FF404730B80FFF7C3FE084B400A186005
:105A90000888B0FA80F0400903B0F0BDF6C50720D1
:105AA0005C64020000C00920F8C50720FCC507207F
:105AB000F8B58B1817460D4A013B1268044693420D
:105AC00010D84D02FFF786FF00262D1BBE4204EBC7
:105AD000050209DA21460648FFF7AAFE04F500741C
